{
  "contractName": "RegistersContract",
  "abi": [
    {
      "inputs": [],
      "stateMutability": "nonpayable",
      "type": "constructor"
    },
    {
      "anonymous": false,
      "inputs": [
        {
          "indexed": false,
          "internalType": "uint256",
          "name": "id",
          "type": "uint256"
        },
        {
          "indexed": false,
          "internalType": "string",
          "name": "name",
          "type": "string"
        },
        {
          "indexed": false,
          "internalType": "string",
          "name": "lastName",
          "type": "string"
        },
        {
          "indexed": false,
          "internalType": "string",
          "name": "contractNumber",
          "type": "string"
        },
        {
          "indexed": false,
          "internalType": "string",
          "name": "geojson",
          "type": "string"
        },
        {
          "indexed": false,
          "internalType": "uint256",
          "name": "createdAt",
          "type": "uint256"
        },
        {
          "indexed": false,
          "internalType": "string",
          "name": "createdBy",
          "type": "string"
        }
      ],
      "name": "RegisterCreated",
      "type": "event"
    },
    {
      "anonymous": false,
      "inputs": [
        {
          "indexed": false,
          "internalType": "uint256",
          "name": "id",
          "type": "uint256"
        },
        {
          "indexed": false,
          "internalType": "string",
          "name": "name",
          "type": "string"
        },
        {
          "indexed": false,
          "internalType": "string",
          "name": "lastName",
          "type": "string"
        },
        {
          "indexed": false,
          "internalType": "string",
          "name": "contractNumber",
          "type": "string"
        },
        {
          "indexed": false,
          "internalType": "string",
          "name": "geojson",
          "type": "string"
        },
        {
          "indexed": false,
          "internalType": "uint256",
          "name": "updatedAt",
          "type": "uint256"
        },
        {
          "indexed": false,
          "internalType": "string",
          "name": "updatedBy",
          "type": "string"
        }
      ],
      "name": "RegisterUpdated",
      "type": "event"
    },
    {
      "inputs": [],
      "name": "registerCounter",
      "outputs": [
        {
          "internalType": "uint256",
          "name": "",
          "type": "uint256"
        }
      ],
      "stateMutability": "view",
      "type": "function"
    },
    {
      "inputs": [
        {
          "internalType": "uint256",
          "name": "",
          "type": "uint256"
        }
      ],
      "name": "registers",
      "outputs": [
        {
          "internalType": "uint256",
          "name": "id",
          "type": "uint256"
        },
        {
          "internalType": "string",
          "name": "name",
          "type": "string"
        },
        {
          "internalType": "string",
          "name": "lastName",
          "type": "string"
        },
        {
          "internalType": "string",
          "name": "contractNumber",
          "type": "string"
        },
        {
          "internalType": "string",
          "name": "geojson",
          "type": "string"
        },
        {
          "internalType": "uint256",
          "name": "createdAt",
          "type": "uint256"
        },
        {
          "internalType": "string",
          "name": "createdBy",
          "type": "string"
        },
        {
          "internalType": "uint256",
          "name": "updatedAt",
          "type": "uint256"
        },
        {
          "internalType": "string",
          "name": "updatedBy",
          "type": "string"
        }
      ],
      "stateMutability": "view",
      "type": "function"
    },
    {
      "inputs": [
        {
          "internalType": "string",
          "name": "_name",
          "type": "string"
        },
        {
          "internalType": "string",
          "name": "_lastName",
          "type": "string"
        },
        {
          "internalType": "string",
          "name": "_contractNumber",
          "type": "string"
        },
        {
          "internalType": "string",
          "name": "_geojson",
          "type": "string"
        },
        {
          "internalType": "string",
          "name": "_user",
          "type": "string"
        }
      ],
      "name": "createRegister",
      "outputs": [],
      "stateMutability": "nonpayable",
      "type": "function"
    },
    {
      "inputs": [
        {
          "internalType": "uint256",
          "name": "_id",
          "type": "uint256"
        },
        {
          "internalType": "string",
          "name": "_name",
          "type": "string"
        },
        {
          "internalType": "string",
          "name": "_lastName",
          "type": "string"
        },
        {
          "internalType": "string",
          "name": "_contractNumber",
          "type": "string"
        },
        {
          "internalType": "string",
          "name": "_geojson",
          "type": "string"
        },
        {
          "internalType": "string",
          "name": "_user",
          "type": "string"
        }
      ],
      "name": "updateRegister",
      "outputs": [],
      "stateMutability": "nonpayable",
      "type": "function"
    }
  ],
  "bytecode": "0x60806040526000805534801561001457600080fd5b5061141c806100246000396000f3fe608060405234801561001057600080fd5b506004361061004c5760003560e01c80631d1d1af4146100515780632db21e01146100895780637595cfe5146100a5578063b23d446f146100c3575b600080fd5b61006b60048036038101906100669190610b03565b6100df565b60405161008099989796959493929190610bd8565b60405180910390f35b6100a3600480360381019061009e9190610dc4565b61045d565b005b6100ad6105c2565b6040516100ba9190610ecb565b60405180910390f35b6100dd60048036038101906100d89190610ee6565b6105c8565b005b60016020528060005260406000206000915090508060000154908060010180546101089061102e565b80601f01602080910402602001604051908101604052809291908181526020018280546101349061102e565b80156101815780601f1061015657610100808354040283529160200191610181565b820191906000526020600020905b81548152906001019060200180831161016457829003601f168201915b5050505050908060020180546101969061102e565b80601f01602080910402602001604051908101604052809291908181526020018280546101c29061102e565b801561020f5780601f106101e45761010080835404028352916020019161020f565b820191906000526020600020905b8154815290600101906020018083116101f257829003601f168201915b5050505050908060030180546102249061102e565b80601f01602080910402602001604051908101604052809291908181526020018280546102509061102e565b801561029d5780601f106102725761010080835404028352916020019161029d565b820191906000526020600020905b81548152906001019060200180831161028057829003601f168201915b5050505050908060040180546102b29061102e565b80601f01602080910402602001604051908101604052809291908181526020018280546102de9061102e565b801561032b5780601f106103005761010080835404028352916020019161032b565b820191906000526020600020905b81548152906001019060200180831161030e57829003601f168201915b5050505050908060050154908060060180546103469061102e565b80601f01602080910402602001604051908101604052809291908181526020018280546103729061102e565b80156103bf5780601f10610394576101008083540402835291602001916103bf565b820191906000526020600020905b8154815290600101906020018083116103a257829003601f168201915b5050505050908060070154908060080180546103da9061102e565b80601f01602080910402602001604051908101604052809291908181526020018280546104069061102e565b80156104535780601f1061042857610100808354040283529160200191610453565b820191906000526020600020905b81548152906001019060200180831161043657829003601f168201915b5050505050905089565b60008081548092919061046f9061108e565b9190505550600042905060405180610120016040528060005481526020018781526020018681526020018581526020018481526020018281526020018381526020018281526020018381525060016000805481526020019081526020016000206000820151816000015560208201518160010190816104ee9190611282565b5060408201518160020190816105049190611282565b50606082015181600301908161051a9190611282565b5060808201518160040190816105309190611282565b5060a0820151816005015560c08201518160060190816105509190611282565b5060e082015181600701556101008201518160080190816105719190611282565b509050507f0d29009c78abc8fb59fcd1c955664f462fd5ba59aad122631370b3bdedc2453e6000548787878786886040516105b29796959493929190611354565b60405180910390a1505050505050565b60005481565b600042905060006001600089815260200190815260200160002060405180610120016040529081600082015481526020016001820180546106089061102e565b80601f01602080910402602001604051908101604052809291908181526020018280546106349061102e565b80156106815780601f1061065657610100808354040283529160200191610681565b820191906000526020600020905b81548152906001019060200180831161066457829003601f168201915b5050505050815260200160028201805461069a9061102e565b80601f01602080910402602001604051908101604052809291908181526020018280546106c69061102e565b80156107135780601f106106e857610100808354040283529160200191610713565b820191906000526020600020905b8154815290600101906020018083116106f657829003601f168201915b5050505050815260200160038201805461072c9061102e565b80601f01602080910402602001604051908101604052809291908181526020018280546107589061102e565b80156107a55780601f1061077a576101008083540402835291602001916107a5565b820191906000526020600020905b81548152906001019060200180831161078857829003601f168201915b505050505081526020016004820180546107be9061102e565b80601f01602080910402602001604051908101604052809291908181526020018280546107ea9061102e565b80156108375780601f1061080c57610100808354040283529160200191610837565b820191906000526020600020905b81548152906001019060200180831161081a57829003601f168201915b505050505081526020016005820154815260200160068201805461085a9061102e565b80601f01602080910402602001604051908101604052809291908181526020018280546108869061102e565b80156108d35780601f106108a8576101008083540402835291602001916108d3565b820191906000526020600020905b8154815290600101906020018083116108b657829003601f168201915b50505050508152602001600782015481526020016008820180546108f69061102e565b80601f01602080910402602001604051908101604052809291908181526020018280546109229061102e565b801561096f5780601f106109445761010080835404028352916020019161096f565b820191906000526020600020905b81548152906001019060200180831161095257829003601f168201915b5050505050815250509050868160200181905250858160400181905250848160600181905250838160800181905250818160e00181815250508281610100018190525080600160008a81526020019081526020016000206000820151816000015560208201518160010190816109e59190611282565b5060408201518160020190816109fb9190611282565b506060820151816003019081610a119190611282565b506080820151816004019081610a279190611282565b5060a0820151816005015560c0820151816006019081610a479190611282565b5060e08201518160070155610100820151816008019081610a689190611282565b509050507f185d79f6cb366b14c254efef53170332bac232f95e54e99a803c1bcc0d33352588888888888789604051610aa79796959493929190611354565b60405180910390a15050505050505050565b6000604051905090565b600080fd5b600080fd5b6000819050919050565b610ae081610acd565b8114610aeb57600080fd5b50565b600081359050610afd81610ad7565b92915050565b600060208284031215610b1957610b18610ac3565b5b6000610b2784828501610aee565b91505092915050565b610b3981610acd565b82525050565b600081519050919050565b600082825260208201905092915050565b60005b83811015610b79578082015181840152602081019050610b5e565b83811115610b88576000848401525b50505050565b6000601f19601f8301169050919050565b6000610baa82610b3f565b610bb48185610b4a565b9350610bc4818560208601610b5b565b610bcd81610b8e565b840191505092915050565b600061012082019050610bee600083018c610b30565b8181036020830152610c00818b610b9f565b90508181036040830152610c14818a610b9f565b90508181036060830152610c288189610b9f565b90508181036080830152610c3c8188610b9f565b9050610c4b60a0830187610b30565b81810360c0830152610c5d8186610b9f565b9050610c6c60e0830185610b30565b818103610100830152610c7f8184610b9f565b90509a9950505050505050505050565b600080fd5b600080fd5b7f4e487b7100000000000000000000000000000000000000000000000000000000600052604160045260246000fd5b610cd182610b8e565b810181811067ffffffffffffffff82111715610cf057610cef610c99565b5b80604052505050565b6000610d03610ab9565b9050610d0f8282610cc8565b919050565b600067ffffffffffffffff821115610d2f57610d2e610c99565b5b610d3882610b8e565b9050602081019050919050565b82818337600083830152505050565b6000610d67610d6284610d14565b610cf9565b905082815260208101848484011115610d8357610d82610c94565b5b610d8e848285610d45565b509392505050565b600082601f830112610dab57610daa610c8f565b5b8135610dbb848260208601610d54565b91505092915050565b600080600080600060a08688031215610de057610ddf610ac3565b5b600086013567ffffffffffffffff811115610dfe57610dfd610ac8565b5b610e0a88828901610d96565b955050602086013567ffffffffffffffff811115610e2b57610e2a610ac8565b5b610e3788828901610d96565b945050604086013567ffffffffffffffff811115610e5857610e57610ac8565b5b610e6488828901610d96565b935050606086013567ffffffffffffffff811115610e8557610e84610ac8565b5b610e9188828901610d96565b925050608086013567ffffffffffffffff811115610eb257610eb1610ac8565b5b610ebe88828901610d96565b9150509295509295909350565b6000602082019050610ee06000830184610b30565b92915050565b60008060008060008060c08789031215610f0357610f02610ac3565b5b6000610f1189828a01610aee565b965050602087013567ffffffffffffffff811115610f3257610f31610ac8565b5b610f3e89828a01610d96565b955050604087013567ffffffffffffffff811115610f5f57610f5e610ac8565b5b610f6b89828a01610d96565b945050606087013567ffffffffffffffff811115610f8c57610f8b610ac8565b5b610f9889828a01610d96565b935050608087013567ffffffffffffffff811115610fb957610fb8610ac8565b5b610fc589828a01610d96565b92505060a087013567ffffffffffffffff811115610fe657610fe5610ac8565b5b610ff289828a01610d96565b9150509295509295509295565b7f4e487b7100000000000000000000000000000000000000000000000000000000600052602260045260246000fd5b6000600282049050600182168061104657607f821691505b60208210810361105957611058610fff565b5b50919050565b7f4e487b7100000000000000000000000000000000000000000000000000000000600052601160045260246000fd5b600061109982610acd565b91507fffffffffffffffffffffffffffffffffffffffffffffffffffffffffffffffff82036110cb576110ca61105f565b5b600182019050919050565b60008190508160005260206000209050919050565b60006020601f8301049050919050565b600082821b905092915050565b6000600883026111387fffffffffffffffffffffffffffffffffffffffffffffffffffffffffffffffff826110fb565b61114286836110fb565b95508019841693508086168417925050509392505050565b6000819050919050565b600061117f61117a61117584610acd565b61115a565b610acd565b9050919050565b6000819050919050565b61119983611164565b6111ad6111a582611186565b848454611108565b825550505050565b600090565b6111c26111b5565b6111cd818484611190565b505050565b5b818110156111f1576111e66000826111ba565b6001810190506111d3565b5050565b601f82111561123657611207816110d6565b611210846110eb565b8101602085101561121f578190505b61123361122b856110eb565b8301826111d2565b50505b505050565b600082821c905092915050565b60006112596000198460080261123b565b1980831691505092915050565b60006112728383611248565b9150826002028217905092915050565b61128b82610b3f565b67ffffffffffffffff8111156112a4576112a3610c99565b5b6112ae825461102e565b6112b98282856111f5565b600060209050601f8311600181146112ec57600084156112da578287015190505b6112e48582611266565b86555061134c565b601f1984166112fa866110d6565b60005b82811015611322578489015182556001820191506020850194506020810190506112fd565b8683101561133f578489015161133b601f891682611248565b8355505b6001600288020188555050505b505050505050565b600060e082019050611369600083018a610b30565b818103602083015261137b8189610b9f565b9050818103604083015261138f8188610b9f565b905081810360608301526113a38187610b9f565b905081810360808301526113b78186610b9f565b90506113c660a0830185610b30565b81810360c08301526113d88184610b9f565b90509897505050505050505056fea2646970667358221220f140cf1637a7b63ed19268517e8476b10192e2b4b05e1cd14f6372358b1793c964736f6c634300080f0033",
  "immutableReferences": {},
  "source": "// SPDX-License-Identifier: MIT\r\npragma solidity >=0.4.22 <0.9.0;\r\n\r\ncontract RegistersContract {\r\n    constructor() {}\r\n\r\n    uint256 public registerCounter = 0;\r\n\r\n    event RegisterCreated(\r\n        uint256 id,\r\n        string name,\r\n        string lastName,\r\n        string contractNumber,\r\n        string geojson,\r\n        uint256 createdAt,\r\n        string createdBy\r\n    );\r\n\r\n    event RegisterUpdated(\r\n        uint256 id,\r\n        string name,\r\n        string lastName,\r\n        string contractNumber,\r\n        string geojson,\r\n        uint256 updatedAt,\r\n        string updatedBy\r\n    );\r\n\r\n    struct Register {\r\n        uint256 id;\r\n        string name;\r\n        string lastName;\r\n        string contractNumber;\r\n        string geojson;\r\n        uint256 createdAt;\r\n        string createdBy;\r\n        uint256 updatedAt;\r\n        string updatedBy;\r\n    }\r\n\r\n    mapping(uint256 => Register) public registers;\r\n\r\n    function createRegister(\r\n        string memory _name,\r\n        string memory _lastName,\r\n        string memory _contractNumber,\r\n        string memory _geojson,\r\n        string memory _user\r\n    ) public {\r\n        registerCounter++;\r\n        uint256 date = block.timestamp;\r\n        registers[registerCounter] = Register(\r\n            registerCounter,\r\n            _name,\r\n            _lastName,\r\n            _contractNumber,\r\n            _geojson,\r\n            date,\r\n            _user,\r\n            date,\r\n            _user\r\n        );\r\n        emit RegisterCreated(\r\n            registerCounter,\r\n            _name,\r\n            _lastName,\r\n            _contractNumber,\r\n            _geojson,\r\n            date,\r\n            _user\r\n        );\r\n    }\r\n\r\n    function updateRegister(\r\n        uint256 _id,\r\n        string memory _name,\r\n        string memory _lastName,\r\n        string memory _contractNumber,\r\n        string memory _geojson,\r\n        string memory _user\r\n    ) public {\r\n        uint256 date = block.timestamp;\r\n        Register memory _register = registers[_id];\r\n        _register.name = _name;\r\n        _register.lastName = _lastName;\r\n        _register.contractNumber = _contractNumber;\r\n        _register.geojson = _geojson;\r\n        _register.updatedAt = date;\r\n        _register.updatedBy = _user;\r\n        registers[_id] = _register;\r\n\r\n        emit RegisterUpdated(\r\n            _id,\r\n            _name,\r\n            _lastName,\r\n            _contractNumber,\r\n            _geojson,\r\n            date,\r\n            _user\r\n        );\r\n    }\r\n}\r\n",
  "sourcePath": "C:\\Users\\WCONDORI_DEV\\Projects\\geo-blockchain\\contracts\\RegistersContract.sol",
  "compiler": {
    "name": "solc",
    "version": "0.8.15+commit.e14f2714.Emscripten.clang"
  },
  "schemaVersion": "3.4.8",
  "updatedAt": "2022-08-04T22:35:05.943Z",
  "devdoc": {
    "kind": "dev",
    "methods": {},
    "version": 1
  },
  "userdoc": {
    "kind": "user",
    "methods": {},
    "version": 1
  }
}